:020000040000FA
:1000000065C000007AC0000078C0000076C0000023
:1000100074C0000072C0000070C000006EC000001C
:100020006CC000006AC0000068C0000066C000002C
:1000300064C0000062C0000060C000005EC000003C
:100040005CC000005AC0000058C0000056C000004C
:1000500054C0000052C0000050C000004EC000005C
:100060004CC000004AC0000048C0000046C000006C
:1000700044C0000042C0000040C000003EC000007C
:100080003CC000003AC0000038C0000036C000008C
:1000900034C0000032C0000030C000002EC000009C
:1000A0002CC000002AC0000028C0000026C00000AC
:1000B00024C0000022C0000020C000001EC00000BC
:1000C0001CC000001AC0000018C0000011241FBE90
:1000D000CFEFD1E2DEBFCDBF00E00CBF12E0A0E069
:1000E000B2E0EAE1FBE000E00BBF02C007900D9236
:1000F000A431B107D9F73AD10EC582CF8F929F9222
:10010000AF92BF92CF92DF92EF92FF920F931F9325
:10011000CF93DF93CDB7DEB7AB970FB6F894DEBFC2
:100120000FBECDBF982E862EA9A2BAA2CBA2DCA26A
:10013000EDA2FEA20FA318A729A73AA74BA783E019
:10014000898313E0190D1295107F1A8343E0BE01D5
:100150006F5E7F4FCE010196CBD08B89082F087040
:1001600083FD39C082E089831A83882D83708B8355
:1001700089A19AA19C0136952795369527953695A4
:1001800027952C838295880F807E8D831E821F8207
:100190001BA11887412F50E0BE016C5D7F4FCE013F
:1001A0000996C7D148E0410FBE016F5E7F4FCE0177
:1001B00001969ED081E090E002C0880F991F9A942A
:1001C000E2F78068898341E0BE016F5E7F4FCE0118
:1001D00001968ED001C001E0802FAB960FB6F89447
:1001E000DEBF0FBECDBFDF91CF911F910F91FF906A
:1001F000EF90DF90CF90BF90AF909F908F90089539
:10020000CF93DF93CDB7DEB728970FB6F894DEBF54
:100210000FBECDBF803F81F095E099839FE09A8328
:1002200090EE9B838C8344E0BE016B5F7F4FCE01D9
:1002300001965ED080E00DC083E089838EE08A83E2
:1002400043E0BE016B5F7F4FCE01019651D08F819D
:10025000807E28960FB6F894DEBF0FBECDBFDF912B
:10026000CF910895EF92FF920F931F93CF93DF9357
:10027000CDB7DEB760970FB6F894DEBF0FBECDBF27
:10028000082FF62EE42E122F80EC898341E0BE0168
:10029000675F7F4FCE0101962BD082E0898388E291
:1002A0008A83EB82FC820D831E8346E0BE01675F7A
:1002B0007F4FCE0101961CD080E68A8380E28B833B
:1002C0008C8344E0BE01675F7F4FCE01019610D062
:1002D00060E080E095DF60960FB6F894DEBF0FBE59
:1002E000CDBFDF91CF911F910F91FF90EF900895B7
:1002F000A89BFECF2C984423A1F0FC01A62FB72F7A
:100300004150242F30E02F5F3F4F280F391F91912C
:100310009EBD0DB407FEFDCF9EB59D93E217F3077A
:10032000B1F72C9A16BCA89A0895CF93DF93FC01DD
:1003300001900020E9F73197AF01481B590B1416C3
:10034000150684F4DC019C01240F351FE0ECF0E07D
:10035000C6ECD0E0908195FFFDCF9D919883A217C8
:10036000B307C1F7CA01DF91CF910895CF93DF930F
:10037000CDB7DEB7AE970FB6F894DEBF0FBECDBFD8
:1003800081E085BD84B1876F84B9289A2C9A2D9A13
:100390008CB580658CBD8CB581608CBD8DB58EB5FE
:1003A00020E044E066EB83E05DDFA5ECB0E01C926A
:1003B000E4ECF0E037E6308322E02093C80098E1D7
:1003C0009093C90086E08093CA001C9230832093EA
:1003D000C0009093C1008093C2001EA6212C312C36
:1003E00021010F2EF8EC8F2E912CF02D0F2EFAE715
:1003F0006F2E712CF02DCE010C969DA78CA7E0ECF2
:10040000F0E08081882354F4E6ECF0E08081EEECAB
:10041000F0E08083F401808185FFFCCFF4018081CE
:1004200088235CF4EEECF0E08081E6ECF0E0808381
:10043000E0ECF0E0808185FFFBCF21143104410422
:10044000510451F58FE1A82E89831A8281E08B83B4
:10045000FEA5FF5FFEA7FC83B12CCC24C394DF2E46
:10046000ED80FE800F81188529853A854B8563E0F4
:1004700080E044DE8BE0E0E0F2E0DE011C960190DB
:100480000D928A95E1F7CE010C964FDF2FEF221ADD
:10049000320A420A520AB3CF82E3281631044104D9
:1004A0005104A9F580ECECE7F0E08083F301808152
:1004B00085688083808180648083F301808186FDEC
:1004C000FCCFE8E7F0E08081E9E7F0E0208190E010
:1004D000922B9F938F938BE092E09F938F931F9229
:1004E00080E28F93FDA5FF932CA52F932BD0CE01F7
:1004F0000C961BDF0FB6F894DEBF0FBECDBF0F2EDC
:10050000F3E32F2E312C412C512CF02D78CF9FEF7F
:10051000291A390A490A590AE1EA2E16E6E83E067E
:10052000E1E04E06510408F46ACF212C312C210160
:1005300066CFFB01DC0102C001900D92415050409A
:10054000D8F708950F931F93CF93DF93CDB7DEB7FE
:100550002E970FB6F894DEBF0FBECDBF0E891F8950
:10056000888D998D26E02C831A83098397FF02C01A
:1005700080E090E801979E838D83AE01445E5F4FDB
:100580006A8D7B8DCE01019619D04D815E8157FD1C
:100590000AC02F813885421753070CF49A01F801DD
:1005A000E20FF31F10822E960FB6F894DEBF0FBE37
:1005B000CDBFDF91CF911F910F9108952F923F9260
:1005C0004F925F926F927F928F929F92AF92BF9263
:1005D000CF92DF92EF92FF920F931F93CF93DF930F
:1005E000CDB7DEB72B970FB6F894DEBF0FBECDBFE9
:1005F0006C017B018A01FC0117821682838181FFD5
:10060000BFC1CE0101963C01F6019381F70193FD34
:10061000859193FF81917F01882309F4ADC18532D3
:1006200039F493FD859193FF81917F01853221F407
:10063000B60190E0D6D1E8CF912C212C312CFFE1EE
:10064000F315D8F08B3279F038F4803279F08332B8
:10065000A1F4232D20611DC08D3261F0803369F437
:10066000232D216016C0832D8260382EE32DE46097
:100670003E2E2AC0F32DF8601DC037FC2DC020EDA2
:10068000280F2A3040F08E32B9F436FC75C1232D84
:100690002064322E19C036FE06C08AE0989E200DD6
:1006A0001124922E11C0EAE02E9E200D1124222E3C
:1006B000F32DF0623F2E08C08C3621F4832D806824
:1006C000382E02C0883641F4F70193FD859193FFDF
:1006D00081917F018111B3CF982F9F7D95549330E5
:1006E00028F40C5F1F4F9FE399830DC0833631F0D0
:1006F000833771F0833509F055C020C0F80180813F
:1007000089830E5F1F4F88248394912C530112C05C
:100710002801F2E04F0E511CF801A080B18036FE96
:1007200003C0692D70E002C06FEF7FEFC5014ED1AD
:100730004C018201F32DFF773F2E15C0280122E0E6
:10074000420E511CF801A080B18036FE03C0692D15
:1007500070E002C06FEF7FEFC5012DD14C01F32D8A
:10076000F0683F2E820133FC19C0822D90E088167C
:100770009906A0F4B60180E290E033D12A94F5CF37
:10078000F50137FC859137FE81915F01B60190E05C
:1007900028D121102A9421E0821A91088114910411
:1007A00079F7E1C0843611F0893639F5F80137FE62
:1007B00007C060817181828193810C5F1F4F08C0E7
:1007C00060817181072E000C880B990B0E5F1F4F03
:1007D000F32DFF763F2E97FF09C090958095709579
:1007E00061957F4F8F4F9F4FF0683F2E2AE030E09A
:1007F000A30133D1882E861844C0853731F4232DC8
:100800002F7EB22E2AE030E025C0932D997FB92E9D
:100810008F36C1F018F4883579F0AEC0803719F002
:10082000883721F0A9C0E92FE061BE2EB4FE0DC0CB
:10083000FB2DF460BF2E09C034FE0AC0292F2660AC
:10084000B22E06C028E030E005C020E130E002C052
:1008500020E132E0F801B7FE07C06081718182813A
:1008600093810C5F1F4F06C06081718180E090E032
:100870000E5F1F4FA301F1D0882E8618FB2DFF7746
:100880003F2E36FE0DC0232D2E7FA22E891458F444
:1008900034FE0BC032FC09C0832D8E7EA82E05C00D
:1008A000B82CA32C03C0B82C01C0B92CA4FE0FC0D7
:1008B000FE01E80DF11D8081803321F49A2D997E8F
:1008C000A92E09C0A2FE06C0B394B39404C08A2D19
:1008D000867809F0B394A3FC10C0A0FE06C0B21441
:1008E00080F4280C922C9B180DC0B21458F4B60159
:1008F00080E290E076D0B394F8CFB21418F42B18BD
:1009000002C0982C212CA4FE0FC0B60180E390E019
:1009100068D0A2FE16C0A1FC03C088E790E002C028
:1009200088E590E0B6010CC08A2D867851F0A1FED2
:1009300002C08BE201C080E2A7FC8DE2B60190E02C
:1009400050D0891430F4B60180E390E04AD09A94F4
:10095000F8CF8A94F301E80DF11D8081B60190E093
:1009600040D08110F6CF222009F44ECEB60180E2AD
:1009700090E037D02A94F7CFF6018681978102C0A4
:100980008FEF9FEF2B960FB6F894DEBF0FBECDBF53
:10099000DF91CF911F910F91FF90EF90DF90CF905B
:1009A000BF90AF909F908F907F906F905F904F908F
:1009B0003F902F900895FC01059061507040011008
:1009C000D8F7809590958E0F9F1F0895FC01615078
:1009D000704001900110D8F7809590958E0F9F1F61
:1009E00008950F931F93CF93DF93FB01238121FD84
:1009F00003C08FEF9FEF2CC022FF16C046815781A6
:100A0000248135814217530744F4A081B1819D01AF
:100A10002F5F3F4F318320838C93268137812F5F57
:100A20003F4F3783268314C08B01EC01FB01008408
:100A3000F185E02D1995892BE1F6D80116968D9157
:100A40009C911797019617969C938E931697CE01BB
:100A5000DF91CF911F910F910895FA01AA272830B5
:100A600051F1203181F1E8946F936E7F6E5F7F4F7B
:100A70008F4F9F4FAF4FB1E03ED0B4E03CD0670FF7
:100A8000781F891F9A1FA11D680F791F8A1F911D4A
:100A9000A11D6A0F711D811D911DA11D20D009F49A
:100AA00068943F912AE0269F11243019305D3193DC
:100AB000DEF6CF010895462F4770405D4193B3E0C5
:100AC0000FD0C9F7F6CF462F4F70405D4A3318F06C
:100AD000495D31FD4052419302D0A9F7EACFB4E01D
:100AE000A6959795879577956795BA95C9F70097D5
:100AF0006105710508959B01AC010A2E0694579576
:100B0000479537952795BA95C9F7620F731F841FCC
:100B1000951FA01D0895F894FFCF53657269616C0D
:0E0B200020300A0D004144432025640A0D00D8
:020000040003F7
:02EFF800FADE3F
:00000001FF
